{
  "contractName": "BitSchoolToken",
  "abi": [
    {
      "constant": true,
      "inputs": [],
      "name": "PRICE_STAGE_TWO",
      "outputs": [
        {
          "name": "",
          "type": "uint256"
        }
      ],
      "payable": false,
      "stateMutability": "view",
      "type": "function"
    },
    {
      "constant": true,
      "inputs": [],
      "name": "preSaleStartTime",
      "outputs": [
        {
          "name": "",
          "type": "uint256"
        }
      ],
      "payable": false,
      "stateMutability": "view",
      "type": "function"
    },
    {
      "constant": true,
      "inputs": [],
      "name": "name",
      "outputs": [
        {
          "name": "",
          "type": "string"
        }
      ],
      "payable": false,
      "stateMutability": "view",
      "type": "function"
    },
    {
      "constant": false,
      "inputs": [
        {
          "name": "_spender",
          "type": "address"
        },
        {
          "name": "_value",
          "type": "uint256"
        }
      ],
      "name": "approve",
      "outputs": [
        {
          "name": "",
          "type": "bool"
        }
      ],
      "payable": false,
      "stateMutability": "nonpayable",
      "type": "function"
    },
    {
      "constant": true,
      "inputs": [],
      "name": "totalSupply",
      "outputs": [
        {
          "name": "",
          "type": "uint256"
        }
      ],
      "payable": false,
      "stateMutability": "view",
      "type": "function"
    },
    {
      "constant": true,
      "inputs": [],
      "name": "ICO_SOFTCAP",
      "outputs": [
        {
          "name": "",
          "type": "uint256"
        }
      ],
      "payable": false,
      "stateMutability": "view",
      "type": "function"
    },
    {
      "constant": true,
      "inputs": [],
      "name": "familyLockWithdrawn",
      "outputs": [
        {
          "name": "",
          "type": "bool"
        }
      ],
      "payable": false,
      "stateMutability": "view",
      "type": "function"
    },
    {
      "constant": true,
      "inputs": [],
      "name": "saleStartTime",
      "outputs": [
        {
          "name": "",
          "type": "uint256"
        }
      ],
      "payable": false,
      "stateMutability": "view",
      "type": "function"
    },
    {
      "constant": true,
      "inputs": [],
      "name": "PRICE_DEFAULT",
      "outputs": [
        {
          "name": "",
          "type": "uint256"
        }
      ],
      "payable": false,
      "stateMutability": "view",
      "type": "function"
    },
    {
      "constant": false,
      "inputs": [
        {
          "name": "_from",
          "type": "address"
        },
        {
          "name": "_to",
          "type": "address"
        },
        {
          "name": "_value",
          "type": "uint256"
        }
      ],
      "name": "transferFrom",
      "outputs": [
        {
          "name": "",
          "type": "bool"
        }
      ],
      "payable": false,
      "stateMutability": "nonpayable",
      "type": "function"
    },
    {
      "constant": true,
      "inputs": [],
      "name": "decimals",
      "outputs": [
        {
          "name": "",
          "type": "uint256"
        }
      ],
      "payable": false,
      "stateMutability": "view",
      "type": "function"
    },
    {
      "constant": true,
      "inputs": [],
      "name": "BITSCHOOL_FAMILY_SUPPLY",
      "outputs": [
        {
          "name": "",
          "type": "uint256"
        }
      ],
      "payable": false,
      "stateMutability": "view",
      "type": "function"
    },
    {
      "constant": false,
      "inputs": [],
      "name": "unpause",
      "outputs": [],
      "payable": false,
      "stateMutability": "nonpayable",
      "type": "function"
    },
    {
      "constant": false,
      "inputs": [],
      "name": "unlockFamilyCoins",
      "outputs": [],
      "payable": false,
      "stateMutability": "nonpayable",
      "type": "function"
    },
    {
      "constant": true,
      "inputs": [],
      "name": "version",
      "outputs": [
        {
          "name": "",
          "type": "string"
        }
      ],
      "payable": false,
      "stateMutability": "view",
      "type": "function"
    },
    {
      "constant": true,
      "inputs": [],
      "name": "ONE_COIN",
      "outputs": [
        {
          "name": "",
          "type": "uint256"
        }
      ],
      "payable": false,
      "stateMutability": "view",
      "type": "function"
    },
    {
      "constant": true,
      "inputs": [],
      "name": "paused",
      "outputs": [
        {
          "name": "",
          "type": "bool"
        }
      ],
      "payable": false,
      "stateMutability": "view",
      "type": "function"
    },
    {
      "constant": false,
      "inputs": [
        {
          "name": "_spender",
          "type": "address"
        },
        {
          "name": "_subtractedValue",
          "type": "uint256"
        }
      ],
      "name": "decreaseApproval",
      "outputs": [
        {
          "name": "success",
          "type": "bool"
        }
      ],
      "payable": false,
      "stateMutability": "nonpayable",
      "type": "function"
    },
    {
      "constant": true,
      "inputs": [],
      "name": "MAX_PRESALE_SUPPLY",
      "outputs": [
        {
          "name": "",
          "type": "uint256"
        }
      ],
      "payable": false,
      "stateMutability": "view",
      "type": "function"
    },
    {
      "constant": true,
      "inputs": [
        {
          "name": "_owner",
          "type": "address"
        }
      ],
      "name": "balanceOf",
      "outputs": [
        {
          "name": "balance",
          "type": "uint256"
        }
      ],
      "payable": false,
      "stateMutability": "view",
      "type": "function"
    },
    {
      "constant": true,
      "inputs": [],
      "name": "ONE_MILL_COIN",
      "outputs": [
        {
          "name": "",
          "type": "uint256"
        }
      ],
      "payable": false,
      "stateMutability": "view",
      "type": "function"
    },
    {
      "constant": false,
      "inputs": [],
      "name": "pause",
      "outputs": [],
      "payable": false,
      "stateMutability": "nonpayable",
      "type": "function"
    },
    {
      "constant": true,
      "inputs": [],
      "name": "owner",
      "outputs": [
        {
          "name": "",
          "type": "address"
        }
      ],
      "payable": false,
      "stateMutability": "view",
      "type": "function"
    },
    {
      "constant": true,
      "inputs": [],
      "name": "PRICE_STAGE_ONE",
      "outputs": [
        {
          "name": "",
          "type": "uint256"
        }
      ],
      "payable": false,
      "stateMutability": "view",
      "type": "function"
    },
    {
      "constant": true,
      "inputs": [],
      "name": "ICO_HARDCAP",
      "outputs": [
        {
          "name": "",
          "type": "uint256"
        }
      ],
      "payable": false,
      "stateMutability": "view",
      "type": "function"
    },
    {
      "constant": true,
      "inputs": [],
      "name": "totalSold",
      "outputs": [
        {
          "name": "",
          "type": "uint256"
        }
      ],
      "payable": false,
      "stateMutability": "view",
      "type": "function"
    },
    {
      "constant": true,
      "inputs": [],
      "name": "symbol",
      "outputs": [
        {
          "name": "",
          "type": "string"
        }
      ],
      "payable": false,
      "stateMutability": "view",
      "type": "function"
    },
    {
      "constant": false,
      "inputs": [
        {
          "name": "_to",
          "type": "address"
        },
        {
          "name": "_value",
          "type": "uint256"
        }
      ],
      "name": "transfer",
      "outputs": [
        {
          "name": "",
          "type": "bool"
        }
      ],
      "payable": false,
      "stateMutability": "nonpayable",
      "type": "function"
    },
    {
      "constant": true,
      "inputs": [],
      "name": "isSaleTime",
      "outputs": [
        {
          "name": "",
          "type": "bool"
        }
      ],
      "payable": false,
      "stateMutability": "view",
      "type": "function"
    },
    {
      "constant": true,
      "inputs": [],
      "name": "FAMILY_LOCK_DURA",
      "outputs": [
        {
          "name": "",
          "type": "uint256"
        }
      ],
      "payable": false,
      "stateMutability": "view",
      "type": "function"
    },
    {
      "constant": true,
      "inputs": [],
      "name": "PRICE_STAGE_FOUR",
      "outputs": [
        {
          "name": "",
          "type": "uint256"
        }
      ],
      "payable": false,
      "stateMutability": "view",
      "type": "function"
    },
    {
      "constant": true,
      "inputs": [],
      "name": "preSaleEndTime",
      "outputs": [
        {
          "name": "",
          "type": "uint256"
        }
      ],
      "payable": false,
      "stateMutability": "view",
      "type": "function"
    },
    {
      "constant": true,
      "inputs": [],
      "name": "ICO_BOUNTY_SUPPLY",
      "outputs": [
        {
          "name": "",
          "type": "uint256"
        }
      ],
      "payable": false,
      "stateMutability": "view",
      "type": "function"
    },
    {
      "constant": false,
      "inputs": [
        {
          "name": "receiver",
          "type": "address"
        }
      ],
      "name": "buyCoins",
      "outputs": [
        {
          "name": "",
          "type": "bool"
        }
      ],
      "payable": true,
      "stateMutability": "payable",
      "type": "function"
    },
    {
      "constant": false,
      "inputs": [
        {
          "name": "_spender",
          "type": "address"
        },
        {
          "name": "_addedValue",
          "type": "uint256"
        }
      ],
      "name": "increaseApproval",
      "outputs": [
        {
          "name": "success",
          "type": "bool"
        }
      ],
      "payable": false,
      "stateMutability": "nonpayable",
      "type": "function"
    },
    {
      "constant": true,
      "inputs": [
        {
          "name": "_owner",
          "type": "address"
        },
        {
          "name": "_spender",
          "type": "address"
        }
      ],
      "name": "allowance",
      "outputs": [
        {
          "name": "",
          "type": "uint256"
        }
      ],
      "payable": false,
      "stateMutability": "view",
      "type": "function"
    },
    {
      "constant": true,
      "inputs": [],
      "name": "PRICE_STAGE_THREE",
      "outputs": [
        {
          "name": "",
          "type": "uint256"
        }
      ],
      "payable": false,
      "stateMutability": "view",
      "type": "function"
    },
    {
      "constant": true,
      "inputs": [],
      "name": "TOTAL_COIN_SUPPLY",
      "outputs": [
        {
          "name": "",
          "type": "uint256"
        }
      ],
      "payable": false,
      "stateMutability": "view",
      "type": "function"
    },
    {
      "constant": true,
      "inputs": [],
      "name": "contributionWallet",
      "outputs": [
        {
          "name": "",
          "type": "address"
        }
      ],
      "payable": false,
      "stateMutability": "view",
      "type": "function"
    },
    {
      "constant": true,
      "inputs": [],
      "name": "isPreSaleTime",
      "outputs": [
        {
          "name": "",
          "type": "bool"
        }
      ],
      "payable": false,
      "stateMutability": "view",
      "type": "function"
    },
    {
      "constant": true,
      "inputs": [],
      "name": "saleEndTime",
      "outputs": [
        {
          "name": "",
          "type": "uint256"
        }
      ],
      "payable": false,
      "stateMutability": "view",
      "type": "function"
    },
    {
      "constant": true,
      "inputs": [],
      "name": "PRICE_PRE_ICO",
      "outputs": [
        {
          "name": "",
          "type": "uint256"
        }
      ],
      "payable": false,
      "stateMutability": "view",
      "type": "function"
    },
    {
      "constant": false,
      "inputs": [
        {
          "name": "newOwner",
          "type": "address"
        }
      ],
      "name": "transferOwnership",
      "outputs": [],
      "payable": false,
      "stateMutability": "nonpayable",
      "type": "function"
    },
    {
      "inputs": [
        {
          "name": "_preSaleStartTime",
          "type": "uint256"
        },
        {
          "name": "_preSaleEndTime",
          "type": "uint256"
        },
        {
          "name": "_saleStartTime",
          "type": "uint256"
        },
        {
          "name": "_saleEndTime",
          "type": "uint256"
        },
        {
          "name": "_contributionWallet",
          "type": "address"
        }
      ],
      "payable": false,
      "stateMutability": "nonpayable",
      "type": "constructor"
    },
    {
      "anonymous": false,
      "inputs": [
        {
          "indexed": true,
          "name": "purchaser",
          "type": "address"
        },
        {
          "indexed": true,
          "name": "receiver",
          "type": "address"
        },
        {
          "indexed": false,
          "name": "amount",
          "type": "uint256"
        }
      ],
      "name": "CoinPurchase",
      "type": "event"
    },
    {
      "anonymous": false,
      "inputs": [],
      "name": "Pause",
      "type": "event"
    },
    {
      "anonymous": false,
      "inputs": [],
      "name": "Unpause",
      "type": "event"
    },
    {
      "anonymous": false,
      "inputs": [
        {
          "indexed": true,
          "name": "previousOwner",
          "type": "address"
        },
        {
          "indexed": true,
          "name": "newOwner",
          "type": "address"
        }
      ],
      "name": "OwnershipTransferred",
      "type": "event"
    },
    {
      "anonymous": false,
      "inputs": [
        {
          "indexed": true,
          "name": "owner",
          "type": "address"
        },
        {
          "indexed": true,
          "name": "spender",
          "type": "address"
        },
        {
          "indexed": false,
          "name": "value",
          "type": "uint256"
        }
      ],
      "name": "Approval",
      "type": "event"
    },
    {
      "anonymous": false,
      "inputs": [
        {
          "indexed": true,
          "name": "from",
          "type": "address"
        },
        {
          "indexed": true,
          "name": "to",
          "type": "address"
        },
        {
          "indexed": false,
          "name": "value",
          "type": "uint256"
        }
      ],
      "name": "Transfer",
      "type": "event"
    }
  ],
  "bytecode": "0x60606040526000600360146101000a81548160ff0219169083151502179055506040805190810160405280600381526020017f312e300000000000000000000000000000000000000000000000000000000000815250600490805190602001906200006c929190620005d9565b506000600660006101000a81548160ff02191690831515021790555034156200009457600080fd5b60405160a080620030aa8339810160405280805190602001909190805190602001909190805190602001909190805190602001909190805190602001909190505033600360006101000a81548173ffffffffffffffffffffffffffffffffffffffff021916908373ffffffffffffffffffffffffffffffffffffffff160217905550600073ffffffffffffffffffffffffffffffffffffffff168173ffffffffffffffffffffffffffffffffffffffff16141515156200015357600080fd5b8442111515156200016357600080fd5b83851015156200017257600080fd5b82841015156200018157600080fd5b81831015156200019057600080fd5b84600781905550836008819055508260098190555081600a8190555080600660016101000a81548173ffffffffffffffffffffffffffffffffffffffff021916908373ffffffffffffffffffffffffffffffffffffffff16021790555060005460016000600360009054906101000a900473ffffffffffffffffffffffffffffffffffffffff1673ffffffffffffffffffffffffffffffffffffffff1673ffffffffffffffffffffffffffffffffffffffff16815260200190815260200160002081905550600360009054906101000a900473ffffffffffffffffffffffffffffffffffffffff1673ffffffffffffffffffffffffffffffffffffffff16600073ffffffffffffffffffffffffffffffffffffffff167fddf252ad1be2c89b69c2b068fc378daa952ba7f163c4a11628f55a4df523b3ef60016000600360009054906101000a900473ffffffffffffffffffffffffffffffffffffffff1673ffffffffffffffffffffffffffffffffffffffff1673ffffffffffffffffffffffffffffffffffffffff168152602001908152602001600020546040518082815260200191505060405180910390a36200035c6200036764010000000002620027cd176401000000009004565b505050505062000688565b620003f6600a800a620f42400260140260016000600360009054906101000a900473ffffffffffffffffffffffffffffffffffffffff1673ffffffffffffffffffffffffffffffffffffffff1673ffffffffffffffffffffffffffffffffffffffff16815260200190815260200160002054620005a064010000000002620017cd179091906401000000009004565b60016000600360009054906101000a900473ffffffffffffffffffffffffffffffffffffffff1673ffffffffffffffffffffffffffffffffffffffff1673ffffffffffffffffffffffffffffffffffffffff16815260200190815260200160002081905550620004c8600a800a620f424002601402600160008073ffffffffffffffffffffffffffffffffffffffff1673ffffffffffffffffffffffffffffffffffffffff16815260200190815260200160002054620005ba64010000000002620017af179091906401000000009004565b600160008073ffffffffffffffffffffffffffffffffffffffff1673ffffffffffffffffffffffffffffffffffffffff16815260200190815260200160002081905550600073ffffffffffffffffffffffffffffffffffffffff16600360009054906101000a900473ffffffffffffffffffffffffffffffffffffffff1673ffffffffffffffffffffffffffffffffffffffff167fddf252ad1be2c89b69c2b068fc378daa952ba7f163c4a11628f55a4df523b3ef600a800a620f4240026014026040518082815260200191505060405180910390a3565b6000828211151515620005af57fe5b818303905092915050565b6000808284019050838110151515620005cf57fe5b8091505092915050565b828054600181600116156101000203166002900490600052602060002090601f016020900481019282601f106200061c57805160ff19168380011785556200064d565b828001600101855582156200064d579182015b828111156200064c5782518255916020019190600101906200062f565b5b5090506200065c919062000660565b5090565b6200068591905b808211156200068157600081600090555060010162000667565b5090565b90565b612a1280620006986000396000f30060606040526004361061020f576000357c0100000000000000000000000000000000000000000000000000000000900463ffffffff168063031f22e71461021457806306d65af31461023d57806306fdde0314610266578063095ea7b3146102f457806318160ddd1461034e5780631adddcb0146103775780631c3966af146103a05780631cbaee2d146103cd57806323724a17146103f657806323b872dd1461041f578063313ce567146104985780633484dd14146104c15780633f4ba83a146104ea57806340cb0f50146104ff57806354fd4d5014610514578063569c7b04146105a25780635c975abb146105cb57806366188463146105f85780636b8dc3551461065257806370a082311461067b578063718fc179146106c85780638456cb59146106f15780638da5cb5b146107065780638fd712ae1461075b5780638ff1a583146107845780639106d7ba146107ad57806395d89b41146107d6578063a9059cbb14610864578063ae6ebfdd146108be578063b16ac63d146108eb578063bd8e68c914610914578063cce29ea71461093d578063cd5a3acb14610966578063cf0119c21461098f578063d73dd623146109d5578063dd62ed3e14610a2f578063e02f8d3314610a9b578063e3033dd214610ac4578063e846f99714610aed578063ebab43e414610b42578063ed338ff114610b6f578063eee8900214610b98578063f2fde38b14610bc1575b600080fd5b341561021f57600080fd5b610227610bfa565b6040518082815260200191505060405180910390f35b341561024857600080fd5b610250610c14565b6040518082815260200191505060405180910390f35b341561027157600080fd5b610279610c1a565b6040518080602001828103825283818151815260200191508051906020019080838360005b838110156102b957808201518184015260208101905061029e565b50505050905090810190601f1680156102e65780820380516001836020036101000a031916815260200191505b509250505060405180910390f35b34156102ff57600080fd5b610334600480803573ffffffffffffffffffffffffffffffffffffffff16906020019091908035906020019091905050610c53565b604051808215151515815260200191505060405180910390f35b341561035957600080fd5b610361610c83565b6040518082815260200191505060405180910390f35b341561038257600080fd5b61038a610c89565b6040518082815260200191505060405180910390f35b34156103ab57600080fd5b6103b3610c95565b604051808215151515815260200191505060405180910390f35b34156103d857600080fd5b6103e0610ca8565b6040518082815260200191505060405180910390f35b341561040157600080fd5b610409610cae565b6040518082815260200191505060405180910390f35b341561042a57600080fd5b61047e600480803573ffffffffffffffffffffffffffffffffffffffff1690602001909190803573ffffffffffffffffffffffffffffffffffffffff16906020019091908035906020019091905050610cb9565b604051808215151515815260200191505060405180910390f35b34156104a357600080fd5b6104ab610d3b565b6040518082815260200191505060405180910390f35b34156104cc57600080fd5b6104d4610d40565b6040518082815260200191505060405180910390f35b34156104f557600080fd5b6104fd610d4f565b005b341561050a57600080fd5b610512610e0f565b005b341561051f57600080fd5b6105276110ce565b6040518080602001828103825283818151815260200191508051906020019080838360005b8381101561056757808201518184015260208101905061054c565b50505050905090810190601f1680156105945780820380516001836020036101000a031916815260200191505b509250505060405180910390f35b34156105ad57600080fd5b6105b561116c565b6040518082815260200191505060405180910390f35b34156105d657600080fd5b6105de611173565b604051808215151515815260200191505060405180910390f35b341561060357600080fd5b610638600480803573ffffffffffffffffffffffffffffffffffffffff16906020019091908035906020019091905050611186565b604051808215151515815260200191505060405180910390f35b341561065d57600080fd5b6106656111b6565b6040518082815260200191505060405180910390f35b341561068657600080fd5b6106b2600480803573ffffffffffffffffffffffffffffffffffffffff169060200190919050506111c2565b6040518082815260200191505060405180910390f35b34156106d357600080fd5b6106db61120b565b6040518082815260200191505060405180910390f35b34156106fc57600080fd5b610704611217565b005b341561071157600080fd5b6107196112d8565b604051808273ffffffffffffffffffffffffffffffffffffffff1673ffffffffffffffffffffffffffffffffffffffff16815260200191505060405180910390f35b341561076657600080fd5b61076e6112fe565b6040518082815260200191505060405180910390f35b341561078f57600080fd5b610797611318565b6040518082815260200191505060405180910390f35b34156107b857600080fd5b6107c0611327565b6040518082815260200191505060405180910390f35b34156107e157600080fd5b6107e961132d565b6040518080602001828103825283818151815260200191508051906020019080838360005b8381101561082957808201518184015260208101905061080e565b50505050905090810190601f1680156108565780820380516001836020036101000a031916815260200191505b509250505060405180910390f35b341561086f57600080fd5b6108a4600480803573ffffffffffffffffffffffffffffffffffffffff16906020019091908035906020019091905050611366565b604051808215151515815260200191505060405180910390f35b34156108c957600080fd5b6108d1611390565b604051808215151515815260200191505060405180910390f35b34156108f657600080fd5b6108fe6113c3565b6040518082815260200191505060405180910390f35b341561091f57600080fd5b6109276113ca565b6040518082815260200191505060405180910390f35b341561094857600080fd5b6109506113d5565b6040518082815260200191505060405180910390f35b341561097157600080fd5b6109796113db565b6040518082815260200191505060405180910390f35b6109bb600480803573ffffffffffffffffffffffffffffffffffffffff169060200190919050506113ea565b604051808215151515815260200191505060405180910390f35b34156109e057600080fd5b610a15600480803573ffffffffffffffffffffffffffffffffffffffff169060200190919080359060200190919050506114cd565b604051808215151515815260200191505060405180910390f35b3415610a3a57600080fd5b610a85600480803573ffffffffffffffffffffffffffffffffffffffff1690602001909190803573ffffffffffffffffffffffffffffffffffffffff169060200190919050506114fd565b6040518082815260200191505060405180910390f35b3415610aa657600080fd5b610aae611584565b6040518082815260200191505060405180910390f35b3415610acf57600080fd5b610ad761159e565b6040518082815260200191505060405180910390f35b3415610af857600080fd5b610b006115ad565b604051808273ffffffffffffffffffffffffffffffffffffffff1673ffffffffffffffffffffffffffffffffffffffff16815260200191505060405180910390f35b3415610b4d57600080fd5b610b556115d3565b604051808215151515815260200191505060405180910390f35b3415610b7a57600080fd5b610b82611603565b6040518082815260200191505060405180910390f35b3415610ba357600080fd5b610bab611609565b6040518082815260200191505060405180910390f35b3415610bcc57600080fd5b610bf8600480803573ffffffffffffffffffffffffffffffffffffffff16906020019091905050611623565b005b60646073600a800a610fa00202811515610c1057fe5b0481565b60075481565b6040805190810160405280600e81526020017f4269745363686f6f6c20436f696e00000000000000000000000000000000000081525081565b6000600360149054906101000a900460ff16151515610c7157600080fd5b610c7b838361168b565b905092915050565b60005481565b600a800a620f42400281565b600660009054906101000a900460ff1681565b60095481565b600a800a610fa00281565b600062069780600a5401421015610d2757600360009054906101000a900473ffffffffffffffffffffffffffffffffffffffff1673ffffffffffffffffffffffffffffffffffffffff168473ffffffffffffffffffffffffffffffffffffffff16141515610d2657600080fd5b5b610d3284848461177d565b90509392505050565b600a81565b600a800a620f42400260140281565b600360009054906101000a900473ffffffffffffffffffffffffffffffffffffffff1673ffffffffffffffffffffffffffffffffffffffff163373ffffffffffffffffffffffffffffffffffffffff16141515610dab57600080fd5b600360149054906101000a900460ff161515610dc657600080fd5b6000600360146101000a81548160ff0219169083151502179055507f7805862f689e2f13df9f062ff482ad3ad112aca9e0847911ed832e158c525b3360405160405180910390a1565b600360009054906101000a900473ffffffffffffffffffffffffffffffffffffffff1673ffffffffffffffffffffffffffffffffffffffff163373ffffffffffffffffffffffffffffffffffffffff16141515610e6b57600080fd5b4262ed4e00600a5401108015610e94575060001515600660009054906101000a900460ff161515145b156110cc576001600660006101000a81548160ff021916908315150217905550610f33600a800a620f42400260140260016000600360009054906101000a900473ffffffffffffffffffffffffffffffffffffffff1673ffffffffffffffffffffffffffffffffffffffff1673ffffffffffffffffffffffffffffffffffffffff168152602001908152602001600020546117af90919063ffffffff16565b60016000600360009054906101000a900473ffffffffffffffffffffffffffffffffffffffff1673ffffffffffffffffffffffffffffffffffffffff1673ffffffffffffffffffffffffffffffffffffffff16815260200190815260200160002081905550610ff5600a800a620f424002601402600160008073ffffffffffffffffffffffffffffffffffffffff1673ffffffffffffffffffffffffffffffffffffffff168152602001908152602001600020546117cd90919063ffffffff16565b600160008073ffffffffffffffffffffffffffffffffffffffff1673ffffffffffffffffffffffffffffffffffffffff16815260200190815260200160002081905550600360009054906101000a900473ffffffffffffffffffffffffffffffffffffffff1673ffffffffffffffffffffffffffffffffffffffff16600073ffffffffffffffffffffffffffffffffffffffff167fddf252ad1be2c89b69c2b068fc378daa952ba7f163c4a11628f55a4df523b3ef600a800a620f4240026014026040518082815260200191505060405180910390a35b565b60048054600181600116156101000203166002900480601f0160208091040260200160405190810160405280929190818152602001828054600181600116156101000203166002900480156111645780601f1061113957610100808354040283529160200191611164565b820191906000526020600020905b81548152906001019060200180831161114757829003601f168201915b505050505081565b600a800a81565b600360149054906101000a900460ff1681565b6000600360149054906101000a900460ff161515156111a457600080fd5b6111ae83836117e6565b905092915050565b600a800a620f42400281565b6000600160008373ffffffffffffffffffffffffffffffffffffffff1673ffffffffffffffffffffffffffffffffffffffff168152602001908152602001600020549050919050565b600a800a620f42400281565b600360009054906101000a900473ffffffffffffffffffffffffffffffffffffffff1673ffffffffffffffffffffffffffffffffffffffff163373ffffffffffffffffffffffffffffffffffffffff1614151561127357600080fd5b600360149054906101000a900460ff1615151561128f57600080fd5b6001600360146101000a81548160ff0219169083151502179055507f6985a02210a168e66602d3235cb6db0e70f92b3ba4d376a33c0f3d9434bff62560405160405180910390a1565b600360009054906101000a900473ffffffffffffffffffffffffffffffffffffffff1681565b6064607d600a800a610fa0020281151561131457fe5b0481565b600a800a620f42400260780281565b60055481565b6040805190810160405280600481526020017f425343480000000000000000000000000000000000000000000000000000000081525081565b600062069780600a5401421015151561137e57600080fd5b6113888383611a77565b905092915050565b600060095442101580156113a65750600a544211155b80156113be5750600a800a620f424002607802600554105b905090565b62ed4e0081565b600a800a610fa00281565b60085481565b600a800a620f424002600a0281565b60008073ffffffffffffffffffffffffffffffffffffffff168273ffffffffffffffffffffffffffffffffffffffff161415151561142757600080fd5b6000341415151561143757600080fd5b61143f6115d3565b1561147a576114578234600a800a620f424002611aa7565b600a800a620f424002600554141561147157426008819055505b600190506114c8565b611482611390565b156114c35761149d8234600a800a620f424002607802611aa7565b600a800a620f42400260780260055414156114ba5742600a819055505b600190506114c8565b600090505b919050565b6000600360149054906101000a900460ff161515156114eb57600080fd5b6114f58383611d19565b905092915050565b6000600260008473ffffffffffffffffffffffffffffffffffffffff1673ffffffffffffffffffffffffffffffffffffffff16815260200190815260200160002060008373ffffffffffffffffffffffffffffffffffffffff1673ffffffffffffffffffffffffffffffffffffffff16815260200190815260200160002054905092915050565b60646069600a800a610fa0020281151561159a57fe5b0481565b600a800a620f42400260c80281565b600660019054906101000a900473ffffffffffffffffffffffffffffffffffffffff1681565b600060075442101580156115e957506008544211155b80156115fe5750600a800a620f424002600554105b905090565b600a5481565b60646096600a800a610fa0020281151561161f57fe5b0481565b600360009054906101000a900473ffffffffffffffffffffffffffffffffffffffff1673ffffffffffffffffffffffffffffffffffffffff163373ffffffffffffffffffffffffffffffffffffffff1614151561167f57600080fd5b61168881611f15565b50565b600081600260003373ffffffffffffffffffffffffffffffffffffffff1673ffffffffffffffffffffffffffffffffffffffff16815260200190815260200160002060008573ffffffffffffffffffffffffffffffffffffffff1673ffffffffffffffffffffffffffffffffffffffff168152602001908152602001600020819055508273ffffffffffffffffffffffffffffffffffffffff163373ffffffffffffffffffffffffffffffffffffffff167f8c5be1e5ebec7d5bd14f71427d1e84f3dd0314c0f7b2291e5b200ac8c7c3b925846040518082815260200191505060405180910390a36001905092915050565b6000600360149054906101000a900460ff1615151561179b57600080fd5b6117a684848461206d565b90509392505050565b60008082840190508381101515156117c357fe5b8091505092915050565b60008282111515156117db57fe5b818303905092915050565b600080600260003373ffffffffffffffffffffffffffffffffffffffff1673ffffffffffffffffffffffffffffffffffffffff16815260200190815260200160002060008573ffffffffffffffffffffffffffffffffffffffff1673ffffffffffffffffffffffffffffffffffffffff168152602001908152602001600020549050808311156118f7576000600260003373ffffffffffffffffffffffffffffffffffffffff1673ffffffffffffffffffffffffffffffffffffffff16815260200190815260200160002060008673ffffffffffffffffffffffffffffffffffffffff1673ffffffffffffffffffffffffffffffffffffffff1681526020019081526020016000208190555061198b565b61190a83826117cd90919063ffffffff16565b600260003373ffffffffffffffffffffffffffffffffffffffff1673ffffffffffffffffffffffffffffffffffffffff16815260200190815260200160002060008673ffffffffffffffffffffffffffffffffffffffff1673ffffffffffffffffffffffffffffffffffffffff168152602001908152602001600020819055505b8373ffffffffffffffffffffffffffffffffffffffff163373ffffffffffffffffffffffffffffffffffffffff167f8c5be1e5ebec7d5bd14f71427d1e84f3dd0314c0f7b2291e5b200ac8c7c3b925600260003373ffffffffffffffffffffffffffffffffffffffff1673ffffffffffffffffffffffffffffffffffffffff16815260200190815260200160002060008873ffffffffffffffffffffffffffffffffffffffff1673ffffffffffffffffffffffffffffffffffffffff168152602001908152602001600020546040518082815260200191505060405180910390a3600191505092915050565b6000600360149054906101000a900460ff16151515611a9557600080fd5b611a9f838361242c565b905092915050565b6000806000611ab4612650565b9250611ac0858461272d565b91506000905083611adc836005546117af90919063ffffffff16565b1115611b1b57611af7600554856117cd90919063ffffffff16565b9150611b038284612752565b9450611b1885346117cd90919063ffffffff16565b90505b611b30826005546117af90919063ffffffff16565b600581905550611b8885600b60008973ffffffffffffffffffffffffffffffffffffffff1673ffffffffffffffffffffffffffffffffffffffff168152602001908152602001600020546117af90919063ffffffff16565b600b60008873ffffffffffffffffffffffffffffffffffffffff1673ffffffffffffffffffffffffffffffffffffffff16815260200190815260200160002081905550611bf8600360009054906101000a900473ffffffffffffffffffffffffffffffffffffffff168784610cb9565b1515611c0057fe5b8573ffffffffffffffffffffffffffffffffffffffff163373ffffffffffffffffffffffffffffffffffffffff167f9ada2d0b71653dfd700de40edd882ecd253ba4528774f4f59cffdae21d199152846040518082815260200191505060405180910390a3600660019054906101000a900473ffffffffffffffffffffffffffffffffffffffff1673ffffffffffffffffffffffffffffffffffffffff166108fc869081150290604051600060405180830381858888f193505050501515611cc757600080fd5b6000811115611d11573373ffffffffffffffffffffffffffffffffffffffff166108fc829081150290604051600060405180830381858888f193505050501515611d1057600080fd5b5b505050505050565b6000611daa82600260003373ffffffffffffffffffffffffffffffffffffffff1673ffffffffffffffffffffffffffffffffffffffff16815260200190815260200160002060008673ffffffffffffffffffffffffffffffffffffffff1673ffffffffffffffffffffffffffffffffffffffff168152602001908152602001600020546117af90919063ffffffff16565b600260003373ffffffffffffffffffffffffffffffffffffffff1673ffffffffffffffffffffffffffffffffffffffff16815260200190815260200160002060008573ffffffffffffffffffffffffffffffffffffffff1673ffffffffffffffffffffffffffffffffffffffff168152602001908152602001600020819055508273ffffffffffffffffffffffffffffffffffffffff163373ffffffffffffffffffffffffffffffffffffffff167f8c5be1e5ebec7d5bd14f71427d1e84f3dd0314c0f7b2291e5b200ac8c7c3b925600260003373ffffffffffffffffffffffffffffffffffffffff1673ffffffffffffffffffffffffffffffffffffffff16815260200190815260200160002060008773ffffffffffffffffffffffffffffffffffffffff1673ffffffffffffffffffffffffffffffffffffffff168152602001908152602001600020546040518082815260200191505060405180910390a36001905092915050565b600360009054906101000a900473ffffffffffffffffffffffffffffffffffffffff1673ffffffffffffffffffffffffffffffffffffffff163373ffffffffffffffffffffffffffffffffffffffff16141515611f7157600080fd5b600073ffffffffffffffffffffffffffffffffffffffff168173ffffffffffffffffffffffffffffffffffffffff1614151515611fad57600080fd5b8073ffffffffffffffffffffffffffffffffffffffff16600360009054906101000a900473ffffffffffffffffffffffffffffffffffffffff1673ffffffffffffffffffffffffffffffffffffffff167f8be0079c531659141344cd1fd0a4f28419497f9722a3daafe3b4186f6b6457e060405160405180910390a380600360006101000a81548173ffffffffffffffffffffffffffffffffffffffff021916908373ffffffffffffffffffffffffffffffffffffffff16021790555050565b60008073ffffffffffffffffffffffffffffffffffffffff168373ffffffffffffffffffffffffffffffffffffffff16141515156120aa57600080fd5b600160008573ffffffffffffffffffffffffffffffffffffffff1673ffffffffffffffffffffffffffffffffffffffff1681526020019081526020016000205482111515156120f857600080fd5b600260008573ffffffffffffffffffffffffffffffffffffffff1673ffffffffffffffffffffffffffffffffffffffff16815260200190815260200160002060003373ffffffffffffffffffffffffffffffffffffffff1673ffffffffffffffffffffffffffffffffffffffff16815260200190815260200160002054821115151561218357600080fd5b6121d582600160008773ffffffffffffffffffffffffffffffffffffffff1673ffffffffffffffffffffffffffffffffffffffff168152602001908152602001600020546117cd90919063ffffffff16565b600160008673ffffffffffffffffffffffffffffffffffffffff1673ffffffffffffffffffffffffffffffffffffffff1681526020019081526020016000208190555061226a82600160008673ffffffffffffffffffffffffffffffffffffffff1673ffffffffffffffffffffffffffffffffffffffff168152602001908152602001600020546117af90919063ffffffff16565b600160008573ffffffffffffffffffffffffffffffffffffffff1673ffffffffffffffffffffffffffffffffffffffff1681526020019081526020016000208190555061233c82600260008773ffffffffffffffffffffffffffffffffffffffff1673ffffffffffffffffffffffffffffffffffffffff16815260200190815260200160002060003373ffffffffffffffffffffffffffffffffffffffff1673ffffffffffffffffffffffffffffffffffffffff168152602001908152602001600020546117cd90919063ffffffff16565b600260008673ffffffffffffffffffffffffffffffffffffffff1673ffffffffffffffffffffffffffffffffffffffff16815260200190815260200160002060003373ffffffffffffffffffffffffffffffffffffffff1673ffffffffffffffffffffffffffffffffffffffff168152602001908152602001600020819055508273ffffffffffffffffffffffffffffffffffffffff168473ffffffffffffffffffffffffffffffffffffffff167fddf252ad1be2c89b69c2b068fc378daa952ba7f163c4a11628f55a4df523b3ef846040518082815260200191505060405180910390a3600190509392505050565b60008073ffffffffffffffffffffffffffffffffffffffff168373ffffffffffffffffffffffffffffffffffffffff161415151561246957600080fd5b600160003373ffffffffffffffffffffffffffffffffffffffff1673ffffffffffffffffffffffffffffffffffffffff1681526020019081526020016000205482111515156124b757600080fd5b61250982600160003373ffffffffffffffffffffffffffffffffffffffff1673ffffffffffffffffffffffffffffffffffffffff168152602001908152602001600020546117cd90919063ffffffff16565b600160003373ffffffffffffffffffffffffffffffffffffffff1673ffffffffffffffffffffffffffffffffffffffff1681526020019081526020016000208190555061259e82600160008673ffffffffffffffffffffffffffffffffffffffff1673ffffffffffffffffffffffffffffffffffffffff168152602001908152602001600020546117af90919063ffffffff16565b600160008573ffffffffffffffffffffffffffffffffffffffff1673ffffffffffffffffffffffffffffffffffffffff168152602001908152602001600020819055508273ffffffffffffffffffffffffffffffffffffffff163373ffffffffffffffffffffffffffffffffffffffff167fddf252ad1be2c89b69c2b068fc378daa952ba7f163c4a11628f55a4df523b3ef846040518082815260200191505060405180910390a36001905092915050565b600060085442101561267a5760646096600a800a610fa0020281151561267257fe5b04905061272a565b62093a80600954014210156126a7576064607d600a800a610fa0020281151561269f57fe5b04905061272a565b62127500600954014210156126d45760646073600a800a610fa002028115156126cc57fe5b04905061272a565b621baf80600954014210156127015760646069600a800a610fa002028115156126f957fe5b04905061272a565b6224ea006009540142101561271f57600a800a610fa002905061272a565b600a800a610fa00290505b90565b600061274a61273c8484612777565b670de0b6b3a76400006127b2565b905092915050565b600061276f61276984670de0b6b3a7640000612777565b836127b2565b905092915050565b600080600084141561278c57600091506127ab565b828402905082848281151561279d57fe5b041415156127a757fe5b8091505b5092915050565b60008082848115156127c057fe5b0490508091505092915050565b61284c600a800a620f42400260140260016000600360009054906101000a900473ffffffffffffffffffffffffffffffffffffffff1673ffffffffffffffffffffffffffffffffffffffff1673ffffffffffffffffffffffffffffffffffffffff168152602001908152602001600020546117cd90919063ffffffff16565b60016000600360009054906101000a900473ffffffffffffffffffffffffffffffffffffffff1673ffffffffffffffffffffffffffffffffffffffff1673ffffffffffffffffffffffffffffffffffffffff1681526020019081526020016000208190555061290e600a800a620f424002601402600160008073ffffffffffffffffffffffffffffffffffffffff1673ffffffffffffffffffffffffffffffffffffffff168152602001908152602001600020546117af90919063ffffffff16565b600160008073ffffffffffffffffffffffffffffffffffffffff1673ffffffffffffffffffffffffffffffffffffffff16815260200190815260200160002081905550600073ffffffffffffffffffffffffffffffffffffffff16600360009054906101000a900473ffffffffffffffffffffffffffffffffffffffff1673ffffffffffffffffffffffffffffffffffffffff167fddf252ad1be2c89b69c2b068fc378daa952ba7f163c4a11628f55a4df523b3ef600a800a620f4240026014026040518082815260200191505060405180910390a35600a165627a7a72305820675d4741fd1acdf574e9105ea144286126f620b62f02335fe3f64af62f3143e70029",
  "source": "\r\npragma solidity^0.4.18;\r\n\r\nimport \"../zeppelin-solidity-master/contracts/token/PausableToken.sol\";\r\n\r\ncontract BitSchoolToken is PausableToken {\r\n    // GENERAL INFORMATION ABOUT THE TOKEN\r\n    string public constant name = \"BitSchool Coin\";\r\n    string public constant symbol = \"BSCH\";\r\n    uint256 public constant decimals = 10;\r\n    string public version = \"1.0\";\r\n\r\n    uint256 public constant ONE_COIN = 10 ** uint256(decimals);\r\n    uint256 public constant ONE_MILL_COIN = (10 ** 6) * ONE_COIN;\r\n    uint256 public constant TOTAL_COIN_SUPPLY = 200 * ONE_MILL_COIN; // 200 Million Total Supply\r\n    uint256 public constant MAX_PRESALE_SUPPLY = ONE_MILL_COIN; // Presale HARD CAP\r\n    uint256 public constant ICO_SOFTCAP = ONE_MILL_COIN; // ICO Soft Cap\r\n    uint256 public constant ICO_HARDCAP = 120 * ONE_MILL_COIN; // HARD CAP 120 Million coins available to public\r\n    uint256 public totalSold; // Number bitschool coins sold\r\n\r\n    \r\n    // Coin Prices\r\n    uint256 public constant PRICE_DEFAULT = 4000 * ONE_COIN; // Price BSCH per 1 ETH (Roughly $0.30)\r\n    uint256 public constant PRICE_PRE_ICO = (PRICE_DEFAULT * 150) / 100; // 50% more BSCH in Pre sale\r\n    uint256 public constant PRICE_STAGE_ONE = (PRICE_DEFAULT * 125) / 100; // 25% more BSCH for stage 1\r\n    uint256 public constant PRICE_STAGE_TWO = (PRICE_DEFAULT * 115) / 100; // 15% more BSCH for stage 2\r\n    uint256 public constant PRICE_STAGE_THREE = (PRICE_DEFAULT * 105) / 100; // 5% more BSCH for stage 3\r\n    uint256 public constant PRICE_STAGE_FOUR = PRICE_DEFAULT; // Default price for stage 4\r\n\r\n    uint256 public constant BITSCHOOL_FAMILY_SUPPLY = 20 * ONE_MILL_COIN; // Reserved for Founders, advisors and team members\r\n    uint public constant FAMILY_LOCK_DURA = 180 days;\r\n    bool public familyLockWithdrawn = false;\r\n    uint256 public constant ICO_BOUNTY_SUPPLY = 10 * ONE_MILL_COIN;\r\n\r\n    // The address where all ICO funds are collected\r\n    address public contributionWallet;\r\n\r\n    // Time limits\r\n    uint256 public preSaleStartTime;                                            // Start presale time\r\n    uint256 public preSaleEndTime;                                              // End presale time\r\n    uint256 public saleStartTime;                                               // Start sale time (start crowdsale)\r\n    uint256 public saleEndTime;                                                 // End crowdsale\r\n\r\n    // Investor contributions\r\n    mapping(address => uint256) weiBalances;\r\n\r\n\r\n    /**\r\n     * @dev Event used to log coin purchases\r\n     * @param purchaser Address that paid for the tokens\r\n     * @param receiver Address that got the tokens\r\n     * @param amount The amount of tokens that were bought\r\n     */\r\n    event CoinPurchase(address indexed purchaser, address indexed receiver, uint256 amount);\r\n\r\n    function BitSchoolToken(uint256 _preSaleStartTime, uint256 _preSaleEndTime, uint256 _saleStartTime, uint256 _saleEndTime, address _contributionWallet) public {\r\n        require(_contributionWallet != address(0));\r\n        require(now <= _preSaleStartTime);\r\n        require(_preSaleStartTime < _preSaleEndTime);\r\n        require(_preSaleEndTime < _saleStartTime);\r\n        require(_saleStartTime < _saleEndTime);\r\n\r\n        preSaleStartTime = _preSaleStartTime;\r\n        preSaleEndTime = _preSaleEndTime;\r\n        saleStartTime = _saleStartTime;\r\n        saleEndTime = _saleEndTime;\r\n        contributionWallet = _contributionWallet;\r\n\r\n        balances[owner] = totalSupply;\r\n        Transfer(address(0), owner, balances[owner]);\r\n\r\n        lockFamilyCoins();\r\n    }\r\n\r\n    function buyCoins(address receiver) public payable returns (bool) {\r\n        require(receiver != address(0));\r\n        require(msg.value != 0);\r\n\r\n        if (isPreSaleTime()){\r\n            processPurchase(receiver, msg.value, MAX_PRESALE_SUPPLY);\r\n            if (totalSold == MAX_PRESALE_SUPPLY) {\r\n                preSaleEndTime = now;\r\n            }\r\n            return true;\r\n        } \r\n        if (isSaleTime()){\r\n            processPurchase(receiver, msg.value, ICO_HARDCAP);\r\n            // If all coins sold for ico\r\n            if (totalSold == ICO_HARDCAP) {\r\n                saleEndTime = now;\r\n            }\r\n            return true;\r\n        }\r\n        return false;\r\n    }\r\n\r\n    function processPurchase(address receiver, uint256 amountWei, uint256 maxPurchase) internal {\r\n        // Get current price of BSCH coins\r\n        uint256 coinPrice = getCoinPrice();\r\n\r\n        // Convert received Wei into coin total\r\n        uint256 amountCoin = calcCoinFromWei(amountWei, coinPrice);\r\n        uint256 returnToSender = 0;\r\n\r\n        // Distribute only the remaining tokens if final contribution exceeds hard cap\r\n        if (totalSold.add(amountCoin) > maxPurchase) {\r\n            amountCoin = maxPurchase.sub(totalSold);\r\n            amountWei = calcWeiFromCoin(amountCoin, coinPrice);\r\n            returnToSender = msg.value.sub(amountWei);\r\n        }\r\n\r\n        totalSold = totalSold.add(amountCoin);\r\n\r\n        // Update stored wei amount for BSCH supporters\r\n        weiBalances[receiver] = weiBalances[receiver].add(amountWei);\r\n\r\n        assert(transferFrom(owner, receiver, amountCoin));\r\n        CoinPurchase(msg.sender, receiver, amountCoin);\r\n\r\n        // Transfer funds to BitSchool wallet\r\n        contributionWallet.transfer(amountWei);\r\n\r\n        // return any wei that is over the max amount allowed\r\n        if (returnToSender > 0) {\r\n            msg.sender.transfer(returnToSender);\r\n        }\r\n    }\r\n\r\n    function calcCoinFromWei(uint _wei, uint _rate) internal pure returns (uint) {\r\n        return SafeMath.div(SafeMath.mul(_wei, _rate), 1 ether);\r\n    }\r\n\r\n    function calcWeiFromCoin(uint _coin, uint _rate) internal pure returns (uint) {\r\n        return SafeMath.div(SafeMath.mul(_coin, 1 ether), _rate);\r\n    }\r\n\r\n    function getCoinPrice() internal view returns (uint256) {\r\n        if (now < preSaleEndTime){\r\n            return PRICE_PRE_ICO;\r\n        }\r\n        if (now < (saleStartTime + 1 weeks)){\r\n            return PRICE_STAGE_ONE;\r\n        }\r\n        if (now < (saleStartTime + 2 weeks)){\r\n            return PRICE_STAGE_TWO;\r\n        }\r\n        if (now < (saleStartTime + 3 weeks)){\r\n            return PRICE_STAGE_THREE;\r\n        }\r\n        if (now < (saleStartTime + 4 weeks)){\r\n            return PRICE_STAGE_FOUR;\r\n        }\r\n        return PRICE_DEFAULT;\r\n    }\r\n/*\r\n    function claimRefund() external {\r\n    }\r\n~*/\r\n    function isPreSaleTime() public view returns (bool) {\r\n        return (now >= preSaleStartTime && now <= preSaleEndTime) && (totalSold < MAX_PRESALE_SUPPLY);\r\n    }\r\n\r\n    function isSaleTime() public view returns (bool) {\r\n        return (now >= saleStartTime && now <= saleEndTime) && (totalSold < ICO_HARDCAP);\r\n    }\r\n\r\n\r\n\r\n\r\n\r\n    // TOKEN\r\n\r\n    function lockFamilyCoins() internal {\r\n        balances[owner] = balances[owner].sub(BITSCHOOL_FAMILY_SUPPLY);\r\n        balances[address(0)] = balances[address(0)].add(BITSCHOOL_FAMILY_SUPPLY);\r\n        Transfer(owner, address(0), BITSCHOOL_FAMILY_SUPPLY);\r\n    }\r\n\r\n    function unlockFamilyCoins() external onlyOwner {\r\n        if ((saleEndTime + FAMILY_LOCK_DURA) < now && familyLockWithdrawn == false) {\r\n            familyLockWithdrawn = true;\r\n            balances[owner] = balances[owner].add(BITSCHOOL_FAMILY_SUPPLY);\r\n            balances[address(0)] = balances[address(0)].sub(BITSCHOOL_FAMILY_SUPPLY);\r\n            Transfer(address(0), owner, BITSCHOOL_FAMILY_SUPPLY);\r\n        }\r\n    }\r\n\r\n    function transfer(address _to, uint _value) public returns (bool) {\r\n        // Only allow transfers 5 days after ICO ends\r\n        require(now >= (saleEndTime + 5 days));\r\n\r\n        return super.transfer(_to, _value);\r\n    }\r\n\r\n    function transferFrom(address _from, address _to, uint _value) public returns (bool) {\r\n        // Only owner's tokens can be transferred before ICO ends\r\n        if (now < (saleEndTime + 5 days)){\r\n            require(_from == owner);\r\n        }          \r\n\r\n        return super.transferFrom(_from, _to, _value);\r\n    }\r\n\r\n    function transferOwnership(address newOwner) public onlyOwner {\r\n        super.transferOwnership(newOwner);\r\n    }\r\n}",
  "sourcePath": "F:\\Game\\Geth\\truffledemo\\contracts\\BitSchoolToken.sol",
  "compiler": {
    "name": "solc",
    "version": "0.4.18+commit.9cf6e910.Emscripten.clang"
  },
  "schemaVersion": "1.0.1",
  "updatedAt": "2018-01-14T23:19:07.422Z"
}